S01C0000477265656E486F75736553696D756C6174696F6E2E73726563EE
S11300000C943B000C9458000C9458000C94580029
S11300100C9458000C9458000C9458000C945800FC
S11300200C9458000C9458000C9458000C945800EC
S11300300C9458000C94CB010C9458000C94580068
S11300400C9458000C9458000C94B4030C94E203E0
S11300500C9458000C9409030C9458000C94580008
S11300600C9458000C9458000402080215025B0218
S11300706802BF02AD0211241FBECFEFD8E0DEBF7D
S1130080CDBF11E0A0E0B1E0EAE2F9E002C00590E2
S11300900D92AC34B107D9F721E0ACE4B1E001C072
S11300A01D92A239B207E1F70E9474010C949304E3
S11300B00C940000FC01408121E030E002C0220FDA
S11300C0331F6A95E2F7242B20830895FC01908165
S11300D021E030E002C0220F331F6A95E2F7209539
S11300E0292320830895FC01408121E030E002C0EF
S11300F0220F331F6A95E2F7242B2083089585B1DC
S1130100826085B985E08A95F1F7000085B18D7F1D
S113011085B90895CF93C82F662321F085B18160F6
S113012085B903C085B18E7F85B98AB180618AB9EA
S11301308AB180628AB98AB180648AB98AB18068D6
S11301408AB98BB18F778BB98BB18F7B8BB98BB11C
S11301508F7D8BB98BB18F7E8BB9CC231CF48BB183
S113016080688BB9C6FF03C08BB180648BB9C5FFAF
S113017003C08BB180628BB9C4FF03C08BB18061B3
S11301808BB90E947F008BB18F778BB98BB18F7B3A
S11301908BB98BB18F7D8BB98BB18F7E8BB9C3FF3C
S11301A003C08BB180688BB9C2FF03C08BB180647C
S11301B08BB9C1FF03C08BB180628BB9C0FF03C090
S11301C08BB180618BB90E947F008BB180618BB948
S11301D08BB180628BB98BB180648BB98BB1806831
S11301E08BB987EB9BE00197F1F700C00000CF913A
S11301F0089560E00E948A000895611104C0805847
S11302000E94F900089580540E94F900089581E045
S11302100E94F900089561E00E948A000895CF9336
S1130220DF93FC0103C00E940B01FE01EF01219644
S113023080818111F8CFDF91CF910895CF93C82F9A
S113024084B1816084B98AB180628AB984B18260E0
S113025084B98AB180618AB98AB180628AB98AB163
S113026080648AB98AB180688AB98FEF99EF01975F
S1130270F1F700C000008BB180628BB98BB1806153
S11302808BB90E947F008FE19EE40197F1F700C0D3
S113029000000E947F008FEF90E00197F1F700C00B
S11302A000000E947F008FEF90E00197F1F700C0FB
S11302B000008BB18F7E8BB90E947F008FEF90E09E
S11302C00197F1F700C0000088E20E94F90088E07D
S11302D00E94F9000E94070186E00E94F9008C2F19
S11302E00E94F900CF91089565E084E290E00E94B5
S11302F05A0065E085E290E00E94660064E084E2D2
S113030090E00E945A0064E085E290E00E9466005A
S113031063E084E290E00E945A0063E085E290E0AA
S11303200E94660062E084E290E00E945A0062E06B
S113033085E290E00E946600ECE7F0E08081806452
S1130340808380818E7F8083EAE7F0E0808180680B
S113035080838081886080838081876080838CE053
S11303600E941E010E94700387E690E00E940C0424
S113037081E091E00E943C04E1E8F0E080818B7F21
S11303808083808183608083EFE6F0E080818160F8
S113039080837894FFCF1F920F920FB60F9211248F
S11303A01F932F933F934F935F936F937F938F93F9
S11303B09F93AF93BF93EF93FF93CF93DF93CDB707
S11303C0DEB72897DEBFCDBF80E390E39A838983AD
S11303D01C821B82FE01359684E0DF011D928A9502
S11303E0E9F7EAE7F0E0808180648083E09100012E
S11303F08E2F90E0FC013197E730F10508F0ECC056
S1130400EC5CFF4F0C94490482E080930001E7C048
S113041088EB0E947F0380914C010E949C030E9400
S1130420B00383E080930001DAC089EB0E947F036C
S11304300E94A603182F0E94B0034AE0BE016F5F1A
S11304407F4F812F90E00E945E0489E191E00E9439
S11304503C04CE0101960E943C0487E191E00E9495
S11304603C0460E080E00E94FD0086E291E00E948E
S11304700F0160E085E00E94FD00CE0101960E941C
S11304800F0160E087E00E94FD008CE291E00E9491
S11304900F011F3128F065E085E290E00E947300AF
S11304A01F3128F465E085E290E00E94660084E054
S11304B08093000194C086E40E947F0380914C01E4
S11304C00E949C030E94B00385E08093000187C0D2
S11304D087E40E947F030E94A603182F4AE0BE010E
S11304E06F5F7F4F90E00E945E040E94B0038EE233
S11304F091E00E943C04CE0101960E943C0487E1F5
S113050091E00E943C0461E080E00E94FD0085E3EC
S113051091E00E940F0161E086E00E94FD00CE019F
S113052001960E940F0161E088E00E94FD008CE3C7
S113053091E00E940F01133328F063E085E290E01C
S11305400E947300133328F463E085E290E00E9474
S1130550660087E08093000142C080E40E947F032C
S113056080914C010E949C030E94B00380914C0135
S11305708F5F80934C0186E08093000130C081E45A
S11305800E947F030E94A603182F4AE0BE016F5FFA
S11305907F4F90E00E945E040E94B0038EE391E0DE
S11305A00E943C04CE0101960E943C0487E191E044
S11305B00E943C04123428F064E085E290E00E943A
S11305C07300123428F464E085E290E00E9466002F
S11305D081E08093000103C081E0809300012896AC
S11305E00FB6F894DEBF0FBECDBFDF91CF91FF9160
S11305F0EF91BF91AF919F918F917F916F915F9197
S11306004F913F912F911F910F900FBE0F901F900C
S113061018951F920F920FB60F9211240F931F93E8
S11306202F933F934F935F936F937F938F939F93F6
S1130630AF93BF93EF93FF93CF93DF9300D000D09A
S1130640CDB7DEB780E390E39A8389839C838B8361
S11306502091780030917900A1EAB0EA0E944F0419
S11306608C01000F012F001F110B11954AE0BE01F0
S11306706F5F7F4FC8010E945E0484E491E00E9492
S11306803C04CE0101960E943C0487E191E00E9463
S11306903C040230110530F462E085E290E00E94EF
S11306A0730005C062E085E290E00E9466000F904E
S11306B00F900F900F90DF91CF91FF91EF91BF9129
S11306C0AF919F918F917F916F915F914F913F91E6
S11306D02F911F910F910F900FBE0F901F9018959F
S11306E087B18F7C87B988B1806388B9E9EBF0E082
S11306F080818C7F808388E98093B800089594EA90
S11307009093BC009091BC009923E4F78093BB00C4
S113071084E88093BC008091BC008823E4F7809136
S1130720B900887F883121F0803421F480E0089575
S113073080E0089581E008958093BB0084E880936D
S1130740BC008091BC008823E4F7089584E880937A
S1130750BC008091BC008823E4F78091BB0008951D
S113076084E98093BC0008951F920F920FB60F92F4
S113077011242F938F939F93EF93FF938091C00045
S11307802091C6008C71E0914F01EF5FEF71909161
S11307904E01E91739F0E0934F01F0E0EE5AFE4FB5
S11307A0208301C082E090914D01892B80934D01FB
S11307B0FF91EF919F918F912F910F900FBE0F900A
S11307C01F9018951F920F920FB60F9211248F93BA
S11307D09F93EF93FF93909151018091500198174B
S11307E069F0E0915001EF5FEF71E0935001F0E0A8
S11307F0EE58FE4F80818093C60005C0E1ECF0E026
S113080080818F7D8083FF91EF919F918F910F90D5
S11308100FBE0F901F901895109251011092500125
S113082010924F0110924E01282F392F33231CF4BC
S113083022E02093C00090789093C5008093C40078
S113084088E98093C10086E08093C20008952091D6
S113085051012F5F2F71909150012917E1F3E22F7D
S1130860F0E0EE58FE4F808320935101E1ECF0E07C
S11308708081806280830895CF93DF93EC0103C06D
S113088021960E94270488818111FACFDF91CF91AC
S11308900895EE0FFF1F0590F491E02D0994A29F97
S11308A0B001B39FC001A39F700D811D1124911D40
S11308B0B29F700D811D1124911D0895BB274A30EC
S11308C031F4992322F4BDE2909581959F4F0C94C5
S11308D06A04BB27FB015527AA27880F991FAA1F63
S11308E0A41710F0A41B83955051B9F7A05DAA3347
S11308F008F0A95DA193009779F7B111B193119212
S1130900CB010C948304DC01FC01672F71917723E4
S1130910E1F7329704C07C916D9370836291AE17B6
S10D0920BF07C8F30895F894FFCF51
S113092A010D0A5374617274696E67207365727675
S113093A6963652E2E2E0D0A0054454D50455241C9
S113094A545552453A0054656D703A00430048556F
S113095A4D49443A0048756D69643A002500534F7D
S10F096A494C3A004C494748543A0000FC
S9030000FC
